{
  "_format": "hh-sol-artifact-1",
  "contractName": "ElectricityAuction",
  "sourceName": "contracts/energyContracts/ElectricityAuction.sol",
  "abi": [
    {
      "inputs": [
        {
          "internalType": "uint256",
          "name": "_kwhOffered",
          "type": "uint256"
        },
        {
          "internalType": "address",
          "name": "_auctioneer",
          "type": "address"
        },
        {
          "internalType": "bool",
          "name": "_isRenewable",
          "type": "bool"
        },
        {
          "internalType": "address",
          "name": "callerAddress",
          "type": "address"
        }
      ],
      "stateMutability": "nonpayable",
      "type": "constructor"
    },
    {
      "anonymous": false,
      "inputs": [],
      "name": "AuctionCollected",
      "type": "event"
    },
    {
      "anonymous": false,
      "inputs": [
        {
          "indexed": false,
          "internalType": "uint256",
          "name": "price",
          "type": "uint256"
        },
        {
          "indexed": false,
          "internalType": "address",
          "name": "winner",
          "type": "address"
        }
      ],
      "name": "AuctionEnded",
      "type": "event"
    },
    {
      "anonymous": false,
      "inputs": [
        {
          "indexed": false,
          "internalType": "address",
          "name": "bidder",
          "type": "address"
        },
        {
          "indexed": false,
          "internalType": "uint256",
          "name": "bidPerKwh",
          "type": "uint256"
        }
      ],
      "name": "BidPlaced",
      "type": "event"
    },
    {
      "inputs": [],
      "name": "bid",
      "outputs": [],
      "stateMutability": "payable",
      "type": "function"
    },
    {
      "inputs": [],
      "name": "endAuction",
      "outputs": [],
      "stateMutability": "payable",
      "type": "function"
    },
    {
      "inputs": [],
      "name": "getPremium",
      "outputs": [
        {
          "internalType": "uint256",
          "name": "",
          "type": "uint256"
        }
      ],
      "stateMutability": "view",
      "type": "function"
    },
    {
      "inputs": [],
      "name": "getPriceForThisAuction",
      "outputs": [
        {
          "internalType": "uint256",
          "name": "",
          "type": "uint256"
        }
      ],
      "stateMutability": "view",
      "type": "function"
    }
  ],
  "bytecode": "0x608060405260006003556000600460006101000a81548173ffffffffffffffffffffffffffffffffffffffff021916908373ffffffffffffffffffffffffffffffffffffffff1602179055506001600460146101000a81548160ff0219169083151502179055506000600760146101000a81548160ff0219169083151502179055503480156200008e57600080fd5b506040516200173a3803806200173a8339818101604052810190620000b4919062000321565b8360058190555082600660006101000a81548173ffffffffffffffffffffffffffffffffffffffff021916908373ffffffffffffffffffffffffffffffffffffffff16021790555081600660146101000a81548160ff02191690831515021790555033600760006101000a81548173ffffffffffffffffffffffffffffffffffffffff021916908373ffffffffffffffffffffffffffffffffffffffff160217905550806000806101000a81548173ffffffffffffffffffffffffffffffffffffffff021916908373ffffffffffffffffffffffffffffffffffffffff16021790555060008054906101000a900473ffffffffffffffffffffffffffffffffffffffff1673ffffffffffffffffffffffffffffffffffffffff16632c8a75266040518163ffffffff1660e01b81526004016040805180830381600087803b158015620001ff57600080fd5b505af115801562000214573d6000803e3d6000fd5b505050506040513d601f19601f820116820180604052508101906200023a9190620002f5565b600860008201518160000155602082015181600101559050505050505062000488565b6000815190506200026e816200043a565b92915050565b600081519050620002858162000454565b92915050565b6000604082840312156200029e57600080fd5b620002aa60406200038d565b90506000620002bc84828501620002de565b6000830152506020620002d284828501620002de565b60208301525092915050565b600081519050620002ef816200046e565b92915050565b6000604082840312156200030857600080fd5b600062000318848285016200028b565b91505092915050565b600080600080608085870312156200033857600080fd5b60006200034887828801620002de565b94505060206200035b878288016200025d565b93505060406200036e8782880162000274565b925050606062000381878288016200025d565b91505092959194509250565b6000604051905081810181811067ffffffffffffffff82111715620003b757620003b66200040b565b5b8060405250919050565b6000620003ce82620003e1565b9050919050565b60008115159050919050565b600073ffffffffffffffffffffffffffffffffffffffff82169050919050565b6000819050919050565b7f4e487b7100000000000000000000000000000000000000000000000000000000600052604160045260246000fd5b6200044581620003c1565b81146200045157600080fd5b50565b6200045f81620003d5565b81146200046b57600080fd5b50565b620004798162000401565b81146200048557600080fd5b50565b6112a280620004986000396000f3fe60806040526004361061003f5760003560e01c80631998aeef14610044578063725821711461004e578063c974402914610079578063fe67a54b146100a4575b600080fd5b61004c6100ae565b005b34801561005a57600080fd5b506100636102ce565b6040516100709190610fd2565b60405180910390f35b34801561008557600080fd5b5061008e6103bd565b60405161009b9190610fd2565b60405180910390f35b6100ac6103f4565b005b600460149054906101000a900460ff166100fd576040517f08c379a00000000000000000000000000000000000000000000000000000000081526004016100f490610f92565b60405180910390fd5b60006101076103bd565b90508034101561014c576040517f08c379a000000000000000000000000000000000000000000000000000000000815260040161014390610fb2565b60405180910390fd5b60405180604001604052803373ffffffffffffffffffffffffffffffffffffffff16815260200160055483346101829190611108565b61018c919061107d565b815250600160003373ffffffffffffffffffffffffffffffffffffffff1673ffffffffffffffffffffffffffffffffffffffff16815260200190815260200160002060008201518160000160006101000a81548173ffffffffffffffffffffffffffffffffffffffff021916908373ffffffffffffffffffffffffffffffffffffffff160217905550602082015181600101559050506002339080600181540180825580915050600190039060005260206000200160009091909190916101000a81548173ffffffffffffffffffffffffffffffffffffffff021916908373ffffffffffffffffffffffffffffffffffffffff1602179055507f3fabff0a9c3ecd6814702e247fa9733e5d0aa69e3a38590f92cb18f623a2254d33600554346102b5919061107d565b6040516102c3929190610f09565b60405180910390a150565b6000600460149054906101000a900460ff1615610320576040517f08c379a000000000000000000000000000000000000000000000000000000000815260040161031790610f32565b60405180910390fd5b3073ffffffffffffffffffffffffffffffffffffffff1663c97440296040518163ffffffff1660e01b815260040160206040518083038186803b15801561036657600080fd5b505afa15801561037a573d6000803e3d6000fd5b505050506040513d601f19601f8201168201806040525081019061039e9190610cb2565b6003546005546103ae91906110ae565b6103b89190611027565b905090565b60006103e86008600001546008600101546005546103db91906110ae565b6103e591906110ae565b6103ef919061107d565b905090565b600760009054906101000a900473ffffffffffffffffffffffffffffffffffffffff1673ffffffffffffffffffffffffffffffffffffffff163373ffffffffffffffffffffffffffffffffffffffff1614610484576040517f08c379a000000000000000000000000000000000000000000000000000000000815260040161047b90610f72565b60405180910390fd5b6000600460146101000a81548160ff0219169083151502179055506000806104aa610c6d565b6000805b6002805490508110156106275760016000600283815481106104f9577f4e487b7100000000000000000000000000000000000000000000000000000000600052603260045260246000fd5b9060005260206000200160009054906101000a900473ffffffffffffffffffffffffffffffffffffffff1673ffffffffffffffffffffffffffffffffffffffff1673ffffffffffffffffffffffffffffffffffffffff1681526020019081526020016000206040518060400160405290816000820160009054906101000a900473ffffffffffffffffffffffffffffffffffffffff1673ffffffffffffffffffffffffffffffffffffffff1673ffffffffffffffffffffffffffffffffffffffff1681526020016001820154815250509250600083600001519050600084602001519050868111156105f35781935086955080965061060b565b858111801561060157508681105b1561060a578095505b5b856003819055505050808061061f906111ae565b9150506104ae565b5080600460006101000a81548173ffffffffffffffffffffffffffffffffffffffff021916908373ffffffffffffffffffffffffffffffffffffffff16021790555060005b6002805490508110156108325760016000600283815481106106b7577f4e487b7100000000000000000000000000000000000000000000000000000000600052603260045260246000fd5b9060005260206000200160009054906101000a900473ffffffffffffffffffffffffffffffffffffffff1673ffffffffffffffffffffffffffffffffffffffff1673ffffffffffffffffffffffffffffffffffffffff1681526020019081526020016000206040518060400160405290816000820160009054906101000a900473ffffffffffffffffffffffffffffffffffffffff1673ffffffffffffffffffffffffffffffffffffffff1673ffffffffffffffffffffffffffffffffffffffff16815260200160018201548152505092506000836000015190508273ffffffffffffffffffffffffffffffffffffffff168173ffffffffffffffffffffffffffffffffffffffff161461081e578073ffffffffffffffffffffffffffffffffffffffff166108fc60055486602001516107f191906110ae565b9081150290604051600060405180830381858888f1935050505015801561081c573d6000803e3d6000fd5b505b50808061082a906111ae565b91505061066c565b507fc07789fac136048b605fef8e227ab89b2e33d8afc9ab4817d374197cd81443d6600354600460009054906101000a900473ffffffffffffffffffffffffffffffffffffffff16604051610888929190610fed565b60405180910390a1600760009054906101000a900473ffffffffffffffffffffffffffffffffffffffff1673ffffffffffffffffffffffffffffffffffffffff1663d4ffef72336005546040518363ffffffff1660e01b81526004016108ef929190610f09565b600060405180830381600087803b15801561090957600080fd5b505af115801561091d573d6000803e3d6000fd5b505050506001600760146101000a81548160ff021916908315150217905550600660149054906101000a900460ff1615610b2057600061095b6102ce565b9050600760009054906101000a900473ffffffffffffffffffffffffffffffffffffffff1673ffffffffffffffffffffffffffffffffffffffff16627d0275600660009054906101000a900473ffffffffffffffffffffffffffffffffffffffff166005546040518363ffffffff1660e01b81526004016109dd929190610ee0565b600060405180830381600087803b1580156109f757600080fd5b505af1158015610a0b573d6000803e3d6000fd5b50505050600660009054906101000a900473ffffffffffffffffffffffffffffffffffffffff1673ffffffffffffffffffffffffffffffffffffffff166108fc829081150290604051600060405180830381858888f19350505050158015610a77573d6000803e3d6000fd5b5060004790506000600460009054906101000a900473ffffffffffffffffffffffffffffffffffffffff1673ffffffffffffffffffffffffffffffffffffffff166108fc839081150290604051600060405180830381858888f19350505050905080610b18576040517f08c379a0000000000000000000000000000000000000000000000000000000008152600401610b0f90610f52565b60405180910390fd5b505050610c3b565b600660009054906101000a900473ffffffffffffffffffffffffffffffffffffffff1673ffffffffffffffffffffffffffffffffffffffff166108fc600554600354610b6c91906110ae565b9081150290604051600060405180830381858888f19350505050158015610b97573d6000803e3d6000fd5b5060004790506000600760009054906101000a900473ffffffffffffffffffffffffffffffffffffffff1673ffffffffffffffffffffffffffffffffffffffff166108fc839081150290604051600060405180830381858888f19350505050905080610c38576040517f08c379a0000000000000000000000000000000000000000000000000000000008152600401610c2f90610f52565b60405180910390fd5b50505b7fdb8bc8d7abd54b4079284b6bf241a2f0ab8497993ab1cf3df37b3a5af1214b4560405160405180910390a150505050565b6040518060400160405280600073ffffffffffffffffffffffffffffffffffffffff168152602001600081525090565b600081519050610cac81611255565b92915050565b600060208284031215610cc457600080fd5b6000610cd284828501610c9d565b91505092915050565b610ce481611178565b82525050565b610cf38161113c565b82525050565b6000610d06603583611016565b91507f46756e6374696f6e2063616e206f6e6c7920626520657865637574656420776860008301527f656e2061756374696f6e2068617320656e6465642e00000000000000000000006020830152604082019050919050565b6000610d6c600f83611016565b91507f5472616e73666572206661696c656400000000000000000000000000000000006000830152602082019050919050565b6000610dac602a83611016565b91507f46756e6374696f6e2063616e206f6e6c7920626520696e766f6b65642062792060008301527f746865206f776e65722c000000000000000000000000000000000000000000006020830152604082019050919050565b6000610e12603583611016565b91507f46756e6374696f6e2063616e206f6e6c7920626520657865637574656420776860008301527f656e2061756374696f6e206973206163746976652e00000000000000000000006020830152604082019050919050565b6000610e78603d83611016565b91507f56616c75652073686f756c64206174206c6561737420636f766572207468652060008301527f7072656d69756d207061696420666f72207468652061756374696f6e2e0000006020830152604082019050919050565b610eda8161116e565b82525050565b6000604082019050610ef56000830185610cdb565b610f026020830184610ed1565b9392505050565b6000604082019050610f1e6000830185610cea565b610f2b6020830184610ed1565b9392505050565b60006020820190508181036000830152610f4b81610cf9565b9050919050565b60006020820190508181036000830152610f6b81610d5f565b9050919050565b60006020820190508181036000830152610f8b81610d9f565b9050919050565b60006020820190508181036000830152610fab81610e05565b9050919050565b60006020820190508181036000830152610fcb81610e6b565b9050919050565b6000602082019050610fe76000830184610ed1565b92915050565b60006040820190506110026000830185610ed1565b61100f6020830184610cea565b9392505050565b600082825260208201905092915050565b60006110328261116e565b915061103d8361116e565b9250827fffffffffffffffffffffffffffffffffffffffffffffffffffffffffffffffff03821115611072576110716111f7565b5b828201905092915050565b60006110888261116e565b91506110938361116e565b9250826110a3576110a2611226565b5b828204905092915050565b60006110b98261116e565b91506110c48361116e565b9250817fffffffffffffffffffffffffffffffffffffffffffffffffffffffffffffffff04831182151516156110fd576110fc6111f7565b5b828202905092915050565b60006111138261116e565b915061111e8361116e565b925082821015611131576111306111f7565b5b828203905092915050565b60006111478261114e565b9050919050565b600073ffffffffffffffffffffffffffffffffffffffff82169050919050565b6000819050919050565b60006111838261118a565b9050919050565b60006111958261119c565b9050919050565b60006111a78261114e565b9050919050565b60006111b98261116e565b91507fffffffffffffffffffffffffffffffffffffffffffffffffffffffffffffffff8214156111ec576111eb6111f7565b5b600182019050919050565b7f4e487b7100000000000000000000000000000000000000000000000000000000600052601160045260246000fd5b7f4e487b7100000000000000000000000000000000000000000000000000000000600052601260045260246000fd5b61125e8161116e565b811461126957600080fd5b5056fea264697066735822122043b8f4818a4a7e9cb34944009980f5b3e250ba54e98198e5bc6092f26bfa3c5a64736f6c63430008000033",
  "linkReferences": {},
  "deployedLinkReferences": {}
}